{
  "_format": "hh-sol-artifact-1",
  "contractName": "LendingPool",
  "sourceName": "contracts/LendingPool.sol",
  "abi": [
    {
      "inputs": [
        {
          "internalType": "address",
          "name": "asset_",
          "type": "address"
        },
        {
          "internalType": "address",
          "name": "uvNFT_",
          "type": "address"
        }
      ],
      "stateMutability": "nonpayable",
      "type": "constructor"
    },
    {
      "anonymous": false,
      "inputs": [
        {
          "indexed": true,
          "internalType": "address",
          "name": "previousOwner",
          "type": "address"
        },
        {
          "indexed": true,
          "internalType": "address",
          "name": "newOwner",
          "type": "address"
        }
      ],
      "name": "OwnershipTransferred",
      "type": "event"
    },
    {
      "anonymous": false,
      "inputs": [
        {
          "indexed": false,
          "internalType": "address",
          "name": "operator",
          "type": "address"
        },
        {
          "indexed": false,
          "internalType": "address",
          "name": "from",
          "type": "address"
        },
        {
          "indexed": false,
          "internalType": "uint256",
          "name": "tokenId",
          "type": "uint256"
        },
        {
          "indexed": false,
          "internalType": "bytes",
          "name": "data",
          "type": "bytes"
        }
      ],
      "name": "Received",
      "type": "event"
    },
    {
      "inputs": [],
      "name": "MAX_LOAN_DURATION",
      "outputs": [
        {
          "internalType": "uint256",
          "name": "",
          "type": "uint256"
        }
      ],
      "stateMutability": "view",
      "type": "function"
    },
    {
      "inputs": [],
      "name": "PERCENTAGE_INTEREST",
      "outputs": [
        {
          "internalType": "uint256",
          "name": "",
          "type": "uint256"
        }
      ],
      "stateMutability": "view",
      "type": "function"
    },
    {
      "inputs": [],
      "name": "asset",
      "outputs": [
        {
          "internalType": "contract IERC20",
          "name": "",
          "type": "address"
        }
      ],
      "stateMutability": "view",
      "type": "function"
    },
    {
      "inputs": [
        {
          "internalType": "uint256",
          "name": "amount",
          "type": "uint256"
        },
        {
          "internalType": "uint256",
          "name": "maturity",
          "type": "uint256"
        },
        {
          "internalType": "uint256",
          "name": "tokenId",
          "type": "uint256"
        }
      ],
      "name": "borrow",
      "outputs": [],
      "stateMutability": "nonpayable",
      "type": "function"
    },
    {
      "inputs": [
        {
          "internalType": "uint256",
          "name": "amount",
          "type": "uint256"
        },
        {
          "internalType": "uint256",
          "name": "duration",
          "type": "uint256"
        }
      ],
      "name": "getTotalAmountDue",
      "outputs": [
        {
          "internalType": "uint256",
          "name": "",
          "type": "uint256"
        }
      ],
      "stateMutability": "view",
      "type": "function"
    },
    {
      "inputs": [
        {
          "internalType": "address",
          "name": "borrower",
          "type": "address"
        }
      ],
      "name": "hasDefaulted",
      "outputs": [
        {
          "internalType": "bool",
          "name": "",
          "type": "bool"
        }
      ],
      "stateMutability": "view",
      "type": "function"
    },
    {
      "inputs": [],
      "name": "lendingPoolBalance",
      "outputs": [
        {
          "internalType": "uint256",
          "name": "",
          "type": "uint256"
        }
      ],
      "stateMutability": "view",
      "type": "function"
    },
    {
      "inputs": [
        {
          "internalType": "address",
          "name": "",
          "type": "address"
        }
      ],
      "name": "loans",
      "outputs": [
        {
          "internalType": "uint256",
          "name": "totalAmountDue",
          "type": "uint256"
        },
        {
          "internalType": "uint256",
          "name": "maturity",
          "type": "uint256"
        },
        {
          "internalType": "uint256",
          "name": "tokenId",
          "type": "uint256"
        }
      ],
      "stateMutability": "view",
      "type": "function"
    },
    {
      "inputs": [
        {
          "internalType": "address",
          "name": "operator",
          "type": "address"
        },
        {
          "internalType": "address",
          "name": "from",
          "type": "address"
        },
        {
          "internalType": "uint256",
          "name": "tokenId",
          "type": "uint256"
        },
        {
          "internalType": "bytes",
          "name": "data",
          "type": "bytes"
        }
      ],
      "name": "onERC721Received",
      "outputs": [
        {
          "internalType": "bytes4",
          "name": "",
          "type": "bytes4"
        }
      ],
      "stateMutability": "nonpayable",
      "type": "function"
    },
    {
      "inputs": [],
      "name": "owner",
      "outputs": [
        {
          "internalType": "address",
          "name": "",
          "type": "address"
        }
      ],
      "stateMutability": "view",
      "type": "function"
    },
    {
      "inputs": [],
      "name": "renounceOwnership",
      "outputs": [],
      "stateMutability": "nonpayable",
      "type": "function"
    },
    {
      "inputs": [
        {
          "internalType": "uint256",
          "name": "amount",
          "type": "uint256"
        }
      ],
      "name": "repay",
      "outputs": [],
      "stateMutability": "nonpayable",
      "type": "function"
    },
    {
      "inputs": [
        {
          "internalType": "address",
          "name": "newAddress",
          "type": "address"
        }
      ],
      "name": "setAssetAddress",
      "outputs": [],
      "stateMutability": "nonpayable",
      "type": "function"
    },
    {
      "inputs": [
        {
          "internalType": "address",
          "name": "newAddress",
          "type": "address"
        }
      ],
      "name": "setNFTAddress",
      "outputs": [],
      "stateMutability": "nonpayable",
      "type": "function"
    },
    {
      "inputs": [
        {
          "internalType": "address",
          "name": "newOwner",
          "type": "address"
        }
      ],
      "name": "transferOwnership",
      "outputs": [],
      "stateMutability": "nonpayable",
      "type": "function"
    },
    {
      "inputs": [
        {
          "internalType": "address",
          "name": "borrower",
          "type": "address"
        }
      ],
      "name": "unlockIdentityEscrow",
      "outputs": [],
      "stateMutability": "nonpayable",
      "type": "function"
    },
    {
      "inputs": [],
      "name": "uvNFT",
      "outputs": [
        {
          "internalType": "contract IERC721",
          "name": "",
          "type": "address"
        }
      ],
      "stateMutability": "view",
      "type": "function"
    },
    {
      "inputs": [],
      "name": "withdrawAllAssets",
      "outputs": [],
      "stateMutability": "nonpayable",
      "type": "function"
    }
  ],
  "bytecode": "0x60806040526301e18558600155600a6004556303c30a7c60055534801561002557600080fd5b5060405161120e38038061120e833981016040819052610044916100ea565b61004d3361007e565b600280546001600160a01b039384166001600160a01b0319918216179091556003805492909316911617905561011d565b600080546001600160a01b038381166001600160a01b0319831681178455604051919092169283917f8be0079c531659141344cd1fd0a4f28419497f9722a3daafe3b4186f6b6457e09190a35050565b80516001600160a01b03811681146100e557600080fd5b919050565b600080604083850312156100fd57600080fd5b610106836100ce565b9150610114602084016100ce565b90509250929050565b6110e28061012c6000396000f3fe608060405234801561001057600080fd5b50600436106101365760003560e01c806373b4086b116100b2578063a87289c411610081578063c423709311610066578063c4237093146102b9578063ccfe13f3146102cc578063f2fde38b146102d457600080fd5b8063a87289c414610283578063adf459ca146102a657600080fd5b806373b4086b14610202578063770e09fd1461024c57806387b59c061461025f5780638da5cb5b1461027257600080fd5b8063371fd8e6116101095780634cc647f2116100ee5780634cc647f2146101d457806369d03738146101e7578063715018a6146101fa57600080fd5b8063371fd8e61461019657806338d52e0f146101a957600080fd5b80630d0b2ca61461013b578063150b7a021461015757806322314669146101835780632d2f369f1461018d575b600080fd5b61014460055481565b6040519081526020015b60405180910390f35b61016a610165366004610e21565b6102e7565b6040516001600160e01b0319909116815260200161014e565b61018b610336565b005b61014460045481565b61018b6101a4366004610efd565b6104b4565b6002546101bc906001600160a01b031681565b6040516001600160a01b03909116815260200161014e565b61018b6101e2366004610f16565b610647565b61018b6101f5366004610f16565b610756565b61018b6107df565b610231610210366004610f16565b60066020526000908152604090208054600182015460029092015490919083565b6040805193845260208401929092529082015260600161014e565b61018b61025a366004610f16565b610845565b6003546101bc906001600160a01b031681565b6000546001600160a01b03166101bc565b610296610291366004610f16565b6108ce565b604051901515815260200161014e565b61018b6102b4366004610f31565b610900565b6101446102c7366004610f5d565b610b52565b610144610b95565b61018b6102e2366004610f16565b610c16565b60007ed9411ae77b2bacabe5cbe62a2abdbeb78992a0182c6f3c83e0029c7615d6b68585858560405161031d9493929190610f7f565b60405180910390a150630a85bd0160e11b949350505050565b6000546001600160a01b031633146103955760405162461bcd60e51b815260206004820181905260248201527f4f776e61626c653a2063616c6c6572206973206e6f7420746865206f776e657260448201526064015b60405180910390fd5b6002546001600160a01b031663a9059cbb6103b86000546001600160a01b031690565b6002546040516370a0823160e01b81523060048201526001600160a01b03909116906370a082319060240160206040518083038186803b1580156103fb57600080fd5b505afa15801561040f573d6000803e3d6000fd5b505050506040513d601f19601f820116820180604052508101906104339190610ff8565b6040516001600160e01b031960e085901b1681526001600160a01b0390921660048301526024820152604401602060405180830381600087803b15801561047957600080fd5b505af115801561048d573d6000803e3d6000fd5b505050506040513d601f19601f820116820180604052508101906104b19190611011565b50565b336000818152600660205260409020600181015442106105165760405162461bcd60e51b815260206004820152601a60248201527f596f75206d69737365642074686520646561646c696e65203a28000000000000604482015260640161038c565b805483111561052457805492505b6002546040516323b872dd60e01b81526001600160a01b03848116600483015230602483015260448201869052909116906323b872dd90606401602060405180830381600087803b15801561057857600080fd5b505af115801561058c573d6000803e3d6000fd5b505050506040513d601f19601f820116820180604052508101906105b09190611011565b50828160000160008282546105c59190611049565b90915550508054610642576003546002820154604051632142170760e11b81523060048201526001600160a01b03858116602483015260448201929092529116906342842e0e90606401600060405180830381600087803b15801561062957600080fd5b505af115801561063d573d6000803e3d6000fd5b505050505b505050565b6000546001600160a01b031633146106a15760405162461bcd60e51b815260206004820181905260248201527f4f776e61626c653a2063616c6c6572206973206e6f7420746865206f776e6572604482015260640161038c565b6106aa816108ce565b156104b1576001600160a01b0380821660009081526006602052604090206003549091166342842e0e306106e66000546001600160a01b031690565b60028501546040516001600160e01b031960e086901b1681526001600160a01b0393841660048201529290911660248301526044820152606401600060405180830381600087803b15801561073a57600080fd5b505af115801561074e573d6000803e3d6000fd5b505050505050565b6000546001600160a01b031633146107b05760405162461bcd60e51b815260206004820181905260248201527f4f776e61626c653a2063616c6c6572206973206e6f7420746865206f776e6572604482015260640161038c565b6003805473ffffffffffffffffffffffffffffffffffffffff19166001600160a01b0392909216919091179055565b6000546001600160a01b031633146108395760405162461bcd60e51b815260206004820181905260248201527f4f776e61626c653a2063616c6c6572206973206e6f7420746865206f776e6572604482015260640161038c565b6108436000610cf1565b565b6000546001600160a01b0316331461089f5760405162461bcd60e51b815260206004820181905260248201527f4f776e61626c653a2063616c6c6572206973206e6f7420746865206f776e6572604482015260640161038c565b6002805473ffffffffffffffffffffffffffffffffffffffff19166001600160a01b0392909216919091179055565b6001600160a01b03811660009081526006602052604081208054158015906108f95750806001015442115b9392505050565b33600081815260066020526040902080541561095e5760405162461bcd60e51b815260206004820152601d60248201527f526570617920796f75722063757272656e74206c6f616e206669727374000000604482015260640161038c565b600061096a4286611049565b9050600081116109bc5760405162461bcd60e51b815260206004820152601e60248201527f4d61747572697479206d75737420626520696e20746865206675747572650000604482015260640161038c565b6005548110610a0d5760405162461bcd60e51b815260206004820152601960248201527f4c6f616e206475726174696f6e20697320746f6f206c6f6e6700000000000000604482015260640161038c565b6000610a198783610b52565b6040805160608101825282815260208082018a81528284018a81526001600160a01b038a811660008181526006909552938690209451855591516001850155516002938401559154925163a9059cbb60e01b81526004810191909152602481018b9052929350169063a9059cbb90604401602060405180830381600087803b158015610aa457600080fd5b505af1158015610ab8573d6000803e3d6000fd5b505050506040513d601f19601f82011682018060405250810190610adc9190611011565b50600354604051632142170760e11b81526001600160a01b03868116600483015230602483015260448201889052909116906342842e0e90606401600060405180830381600087803b158015610b3157600080fd5b505af1158015610b45573d6000803e3d6000fd5b5050505050505050505050565b600080610b63846004546064610d4e565b905060006001548285610b769190611060565b610b809190611095565b9050610b8c81866110a9565b95945050505050565b6002546040516370a0823160e01b81523060048201526000916001600160a01b0316906370a082319060240160206040518083038186803b158015610bd957600080fd5b505afa158015610bed573d6000803e3d6000fd5b505050506040513d601f19601f82011682018060405250810190610c119190610ff8565b905090565b6000546001600160a01b03163314610c705760405162461bcd60e51b815260206004820181905260248201527f4f776e61626c653a2063616c6c6572206973206e6f7420746865206f776e6572604482015260640161038c565b6001600160a01b038116610cec5760405162461bcd60e51b815260206004820152602660248201527f4f776e61626c653a206e6577206f776e657220697320746865207a65726f206160448201527f6464726573730000000000000000000000000000000000000000000000000000606482015260840161038c565b6104b1815b600080546001600160a01b0383811673ffffffffffffffffffffffffffffffffffffffff19831681178455604051919092169283917f8be0079c531659141344cd1fd0a4f28419497f9722a3daafe3b4186f6b6457e09190a35050565b600080610d5b8386611095565b90506000610d6984876110c1565b90506000610d778587611095565b90506000610d8586886110c1565b905085610d928285611060565b610d9c9190611095565b610da68385611060565b610db08387611060565b88610dbb8789611060565b610dc59190611060565b610dcf91906110a9565b610dd991906110a9565b610de391906110a9565b98975050505050505050565b80356001600160a01b0381168114610e0657600080fd5b919050565b634e487b7160e01b600052604160045260246000fd5b60008060008060808587031215610e3757600080fd5b610e4085610def565b9350610e4e60208601610def565b925060408501359150606085013567ffffffffffffffff80821115610e7257600080fd5b818701915087601f830112610e8657600080fd5b813581811115610e9857610e98610e0b565b604051601f8201601f19908116603f01168101908382118183101715610ec057610ec0610e0b565b816040528281528a6020848701011115610ed957600080fd5b82602086016020830137600060208483010152809550505050505092959194509250565b600060208284031215610f0f57600080fd5b5035919050565b600060208284031215610f2857600080fd5b6108f982610def565b600080600060608486031215610f4657600080fd5b505081359360208301359350604090920135919050565b60008060408385031215610f7057600080fd5b50508035926020909101359150565b60006001600160a01b038087168352602081871681850152856040850152608060608501528451915081608085015260005b82811015610fcd5785810182015185820160a001528101610fb1565b82811115610fdf57600060a084870101525b5050601f01601f19169190910160a00195945050505050565b60006020828403121561100a57600080fd5b5051919050565b60006020828403121561102357600080fd5b815180151581146108f957600080fd5b634e487b7160e01b600052601160045260246000fd5b60008282101561105b5761105b611033565b500390565b600081600019048311821515161561107a5761107a611033565b500290565b634e487b7160e01b600052601260045260246000fd5b6000826110a4576110a461107f565b500490565b600082198211156110bc576110bc611033565b500190565b6000826110d0576110d061107f565b50069056fea164736f6c6343000809000a",
  "linkReferences": {},
  "deployedLinkReferences": {}
}