{
  "_format": "hh-sol-artifact-1",
  "contractName": "LendingPool",
  "sourceName": "contracts/LendingPool.sol",
  "abi": [
    {
      "inputs": [
        {
          "internalType": "address",
          "name": "asset_",
          "type": "address"
        },
        {
          "internalType": "address",
          "name": "uvNFT_",
          "type": "address"
        }
      ],
      "stateMutability": "nonpayable",
      "type": "constructor"
    },
    {
      "anonymous": false,
      "inputs": [
        {
          "indexed": true,
          "internalType": "address",
          "name": "previousOwner",
          "type": "address"
        },
        {
          "indexed": true,
          "internalType": "address",
          "name": "newOwner",
          "type": "address"
        }
      ],
      "name": "OwnershipTransferred",
      "type": "event"
    },
    {
      "anonymous": false,
      "inputs": [
        {
          "indexed": false,
          "internalType": "address",
          "name": "operator",
          "type": "address"
        },
        {
          "indexed": false,
          "internalType": "address",
          "name": "from",
          "type": "address"
        },
        {
          "indexed": false,
          "internalType": "uint256",
          "name": "tokenId",
          "type": "uint256"
        },
        {
          "indexed": false,
          "internalType": "bytes",
          "name": "data",
          "type": "bytes"
        }
      ],
      "name": "Received",
      "type": "event"
    },
    {
      "inputs": [],
      "name": "MAX_LOAN_DURATION",
      "outputs": [
        {
          "internalType": "uint256",
          "name": "",
          "type": "uint256"
        }
      ],
      "stateMutability": "view",
      "type": "function"
    },
    {
      "inputs": [],
      "name": "PERCENTAGE_INTEREST",
      "outputs": [
        {
          "internalType": "uint256",
          "name": "",
          "type": "uint256"
        }
      ],
      "stateMutability": "view",
      "type": "function"
    },
    {
      "inputs": [],
      "name": "asset",
      "outputs": [
        {
          "internalType": "contract IERC20",
          "name": "",
          "type": "address"
        }
      ],
      "stateMutability": "view",
      "type": "function"
    },
    {
      "inputs": [
        {
          "internalType": "uint256",
          "name": "amount",
          "type": "uint256"
        },
        {
          "internalType": "uint256",
          "name": "maturity",
          "type": "uint256"
        },
        {
          "internalType": "uint256",
          "name": "tokenId",
          "type": "uint256"
        }
      ],
      "name": "borrow",
      "outputs": [],
      "stateMutability": "nonpayable",
      "type": "function"
    },
    {
      "inputs": [],
      "name": "getLenders",
      "outputs": [
        {
          "internalType": "address[]",
          "name": "",
          "type": "address[]"
        }
      ],
      "stateMutability": "view",
      "type": "function"
    },
    {
      "inputs": [
        {
          "internalType": "uint256",
          "name": "amount",
          "type": "uint256"
        },
        {
          "internalType": "uint256",
          "name": "duration",
          "type": "uint256"
        }
      ],
      "name": "getTotalAmountDue",
      "outputs": [
        {
          "internalType": "uint256",
          "name": "",
          "type": "uint256"
        }
      ],
      "stateMutability": "view",
      "type": "function"
    },
    {
      "inputs": [
        {
          "internalType": "address",
          "name": "borrower",
          "type": "address"
        }
      ],
      "name": "hasDefaulted",
      "outputs": [
        {
          "internalType": "bool",
          "name": "",
          "type": "bool"
        }
      ],
      "stateMutability": "view",
      "type": "function"
    },
    {
      "inputs": [
        {
          "internalType": "uint256",
          "name": "",
          "type": "uint256"
        }
      ],
      "name": "lenders",
      "outputs": [
        {
          "internalType": "address",
          "name": "",
          "type": "address"
        }
      ],
      "stateMutability": "view",
      "type": "function"
    },
    {
      "inputs": [],
      "name": "lendingPoolBalance",
      "outputs": [
        {
          "internalType": "uint256",
          "name": "",
          "type": "uint256"
        }
      ],
      "stateMutability": "view",
      "type": "function"
    },
    {
      "inputs": [
        {
          "internalType": "address",
          "name": "",
          "type": "address"
        }
      ],
      "name": "loans",
      "outputs": [
        {
          "internalType": "uint256",
          "name": "totalAmountDue",
          "type": "uint256"
        },
        {
          "internalType": "uint256",
          "name": "maturity",
          "type": "uint256"
        },
        {
          "internalType": "uint256",
          "name": "tokenId",
          "type": "uint256"
        }
      ],
      "stateMutability": "view",
      "type": "function"
    },
    {
      "inputs": [
        {
          "internalType": "address",
          "name": "operator",
          "type": "address"
        },
        {
          "internalType": "address",
          "name": "from",
          "type": "address"
        },
        {
          "internalType": "uint256",
          "name": "tokenId",
          "type": "uint256"
        },
        {
          "internalType": "bytes",
          "name": "data",
          "type": "bytes"
        }
      ],
      "name": "onERC721Received",
      "outputs": [
        {
          "internalType": "bytes4",
          "name": "",
          "type": "bytes4"
        }
      ],
      "stateMutability": "nonpayable",
      "type": "function"
    },
    {
      "inputs": [],
      "name": "owner",
      "outputs": [
        {
          "internalType": "address",
          "name": "",
          "type": "address"
        }
      ],
      "stateMutability": "view",
      "type": "function"
    },
    {
      "inputs": [],
      "name": "renounceOwnership",
      "outputs": [],
      "stateMutability": "nonpayable",
      "type": "function"
    },
    {
      "inputs": [
        {
          "internalType": "uint256",
          "name": "amount",
          "type": "uint256"
        }
      ],
      "name": "repay",
      "outputs": [],
      "stateMutability": "nonpayable",
      "type": "function"
    },
    {
      "inputs": [
        {
          "internalType": "address",
          "name": "newAddress",
          "type": "address"
        }
      ],
      "name": "setAssetAddress",
      "outputs": [],
      "stateMutability": "nonpayable",
      "type": "function"
    },
    {
      "inputs": [
        {
          "internalType": "address",
          "name": "newAddress",
          "type": "address"
        }
      ],
      "name": "setNFTAddress",
      "outputs": [],
      "stateMutability": "nonpayable",
      "type": "function"
    },
    {
      "inputs": [
        {
          "internalType": "address",
          "name": "newOwner",
          "type": "address"
        }
      ],
      "name": "transferOwnership",
      "outputs": [],
      "stateMutability": "nonpayable",
      "type": "function"
    },
    {
      "inputs": [
        {
          "internalType": "address",
          "name": "borrower",
          "type": "address"
        }
      ],
      "name": "unlockIdentityEscrow",
      "outputs": [],
      "stateMutability": "nonpayable",
      "type": "function"
    },
    {
      "inputs": [],
      "name": "uvNFT",
      "outputs": [
        {
          "internalType": "contract IERC721",
          "name": "",
          "type": "address"
        }
      ],
      "stateMutability": "view",
      "type": "function"
    },
    {
      "inputs": [],
      "name": "withdrawAllAssets",
      "outputs": [],
      "stateMutability": "nonpayable",
      "type": "function"
    }
  ],
  "bytecode": "0x60806040526301e18558600155600a6004556303c30a7c60055534801561002557600080fd5b506040516200137a3803806200137a833981016040819052610046916100ec565b61004f33610080565b600280546001600160a01b039384166001600160a01b0319918216179091556003805492909316911617905561011f565b600080546001600160a01b038381166001600160a01b0319831681178455604051919092169283917f8be0079c531659141344cd1fd0a4f28419497f9722a3daafe3b4186f6b6457e09190a35050565b80516001600160a01b03811681146100e757600080fd5b919050565b600080604083850312156100ff57600080fd5b610108836100d0565b9150610116602084016100d0565b90509250929050565b61124b806200012f6000396000f3fe608060405234801561001057600080fd5b506004361061016c5760003560e01c8063770e09fd116100cd578063a87289c411610081578063c423709311610066578063c423709314610317578063ccfe13f31461032a578063f2fde38b1461033257600080fd5b8063a87289c4146102e1578063adf459ca1461030457600080fd5b806387b59c06116100b257806387b59c06146102aa5780638da5cb5b146102bd578063929eea21146102ce57600080fd5b8063770e09fd14610282578063829268751461029557600080fd5b806338d52e0f1161012457806369d037381161010957806369d037381461021d578063715018a61461023057806373b4086b1461023857600080fd5b806338d52e0f146101df5780634cc647f21461020a57600080fd5b8063223146691161015557806322314669146101b95780632d2f369f146101c3578063371fd8e6146101cc57600080fd5b80630d0b2ca614610171578063150b7a021461018d575b600080fd5b61017a60055481565b6040519081526020015b60405180910390f35b6101a061019b366004610f3d565b610345565b6040516001600160e01b03199091168152602001610184565b6101c1610394565b005b61017a60045481565b6101c16101da366004611019565b610512565b6002546101f2906001600160a01b031681565b6040516001600160a01b039091168152602001610184565b6101c1610218366004611032565b6106a5565b6101c161022b366004611032565b6107b4565b6101c1610830565b610267610246366004611032565b60076020526000908152604090208054600182015460029092015490919083565b60408051938452602084019290925290820152606001610184565b6101c1610290366004611032565b610896565b61029d610912565b604051610184919061104d565b6003546101f2906001600160a01b031681565b6000546001600160a01b03166101f2565b6101f26102dc366004611019565b610974565b6102f46102ef366004611032565b61099e565b6040519015158152602001610184565b6101c161031236600461109a565b6109d0565b61017a6103253660046110c6565b610c7b565b61017a610cbe565b6101c1610340366004611032565b610d3f565b60007ed9411ae77b2bacabe5cbe62a2abdbeb78992a0182c6f3c83e0029c7615d6b68585858560405161037b94939291906110e8565b60405180910390a150630a85bd0160e11b949350505050565b6000546001600160a01b031633146103f35760405162461bcd60e51b815260206004820181905260248201527f4f776e61626c653a2063616c6c6572206973206e6f7420746865206f776e657260448201526064015b60405180910390fd5b6002546001600160a01b031663a9059cbb6104166000546001600160a01b031690565b6002546040516370a0823160e01b81523060048201526001600160a01b03909116906370a082319060240160206040518083038186803b15801561045957600080fd5b505afa15801561046d573d6000803e3d6000fd5b505050506040513d601f19601f820116820180604052508101906104919190611161565b6040516001600160e01b031960e085901b1681526001600160a01b0390921660048301526024820152604401602060405180830381600087803b1580156104d757600080fd5b505af11580156104eb573d6000803e3d6000fd5b505050506040513d601f19601f8201168201806040525081019061050f919061117a565b50565b336000818152600760205260409020600181015442106105745760405162461bcd60e51b815260206004820152601a60248201527f596f75206d69737365642074686520646561646c696e65203a2800000000000060448201526064016103ea565b805483111561058257805492505b6002546040516323b872dd60e01b81526001600160a01b03848116600483015230602483015260448201869052909116906323b872dd90606401602060405180830381600087803b1580156105d657600080fd5b505af11580156105ea573d6000803e3d6000fd5b505050506040513d601f19601f8201168201806040525081019061060e919061117a565b508281600001600082825461062391906111b2565b909155505080546106a0576003546002820154604051632142170760e11b81523060048201526001600160a01b03858116602483015260448201929092529116906342842e0e90606401600060405180830381600087803b15801561068757600080fd5b505af115801561069b573d6000803e3d6000fd5b505050505b505050565b6000546001600160a01b031633146106ff5760405162461bcd60e51b815260206004820181905260248201527f4f776e61626c653a2063616c6c6572206973206e6f7420746865206f776e657260448201526064016103ea565b6107088161099e565b1561050f576001600160a01b0380821660009081526007602052604090206003549091166342842e0e306107446000546001600160a01b031690565b60028501546040516001600160e01b031960e086901b1681526001600160a01b0393841660048201529290911660248301526044820152606401600060405180830381600087803b15801561079857600080fd5b505af11580156107ac573d6000803e3d6000fd5b505050505050565b6000546001600160a01b0316331461080e5760405162461bcd60e51b815260206004820181905260248201527f4f776e61626c653a2063616c6c6572206973206e6f7420746865206f776e657260448201526064016103ea565b600380546001600160a01b0319166001600160a01b0392909216919091179055565b6000546001600160a01b0316331461088a5760405162461bcd60e51b815260206004820181905260248201527f4f776e61626c653a2063616c6c6572206973206e6f7420746865206f776e657260448201526064016103ea565b6108946000610e1a565b565b6000546001600160a01b031633146108f05760405162461bcd60e51b815260206004820181905260248201527f4f776e61626c653a2063616c6c6572206973206e6f7420746865206f776e657260448201526064016103ea565b600280546001600160a01b0319166001600160a01b0392909216919091179055565b6060600680548060200260200160405190810160405280929190818152602001828054801561096a57602002820191906000526020600020905b81546001600160a01b0316815260019091019060200180831161094c575b5050505050905090565b6006818154811061098457600080fd5b6000918252602090912001546001600160a01b0316905081565b6001600160a01b03811660009081526007602052604081208054158015906109c95750806001015442115b9392505050565b336000818152600760205260409020805415610a2e5760405162461bcd60e51b815260206004820152601d60248201527f526570617920796f75722063757272656e74206c6f616e20666972737400000060448201526064016103ea565b6000610a3a42866111b2565b905060008111610a8c5760405162461bcd60e51b815260206004820152601e60248201527f4d61747572697479206d75737420626520696e2074686520667574757265000060448201526064016103ea565b6005548110610add5760405162461bcd60e51b815260206004820152601960248201527f4c6f616e206475726174696f6e20697320746f6f206c6f6e670000000000000060448201526064016103ea565b6000610ae98783610c7b565b9050826001015460001415610b4457600680546001810182556000919091527ff652222313e28459528d920b65115c16c04f3efc82aaedc97be59f3f377c0d3f0180546001600160a01b0319166001600160a01b0386161790555b6040805160608101825282815260208082018981528284018981526001600160a01b0389811660008181526007909552938690209451855591516001850155516002938401559154925163a9059cbb60e01b81526004810191909152602481018a905291169063a9059cbb90604401602060405180830381600087803b158015610bcd57600080fd5b505af1158015610be1573d6000803e3d6000fd5b505050506040513d601f19601f82011682018060405250810190610c05919061117a565b50600354604051632142170760e11b81526001600160a01b03868116600483015230602483015260448201889052909116906342842e0e90606401600060405180830381600087803b158015610c5a57600080fd5b505af1158015610c6e573d6000803e3d6000fd5b5050505050505050505050565b600080610c8c846004546064610e6a565b905060006001548285610c9f91906111c9565b610ca991906111fe565b9050610cb58186611212565b95945050505050565b6002546040516370a0823160e01b81523060048201526000916001600160a01b0316906370a082319060240160206040518083038186803b158015610d0257600080fd5b505afa158015610d16573d6000803e3d6000fd5b505050506040513d601f19601f82011682018060405250810190610d3a9190611161565b905090565b6000546001600160a01b03163314610d995760405162461bcd60e51b815260206004820181905260248201527f4f776e61626c653a2063616c6c6572206973206e6f7420746865206f776e657260448201526064016103ea565b6001600160a01b038116610e155760405162461bcd60e51b815260206004820152602660248201527f4f776e61626c653a206e6577206f776e657220697320746865207a65726f206160448201527f646472657373000000000000000000000000000000000000000000000000000060648201526084016103ea565b61050f815b600080546001600160a01b038381166001600160a01b0319831681178455604051919092169283917f8be0079c531659141344cd1fd0a4f28419497f9722a3daafe3b4186f6b6457e09190a35050565b600080610e7783866111fe565b90506000610e85848761122a565b90506000610e9385876111fe565b90506000610ea1868861122a565b905085610eae82856111c9565b610eb891906111fe565b610ec283856111c9565b610ecc83876111c9565b88610ed787896111c9565b610ee191906111c9565b610eeb9190611212565b610ef59190611212565b610eff9190611212565b98975050505050505050565b80356001600160a01b0381168114610f2257600080fd5b919050565b634e487b7160e01b600052604160045260246000fd5b60008060008060808587031215610f5357600080fd5b610f5c85610f0b565b9350610f6a60208601610f0b565b925060408501359150606085013567ffffffffffffffff80821115610f8e57600080fd5b818701915087601f830112610fa257600080fd5b813581811115610fb457610fb4610f27565b604051601f8201601f19908116603f01168101908382118183101715610fdc57610fdc610f27565b816040528281528a6020848701011115610ff557600080fd5b82602086016020830137600060208483010152809550505050505092959194509250565b60006020828403121561102b57600080fd5b5035919050565b60006020828403121561104457600080fd5b6109c982610f0b565b6020808252825182820181905260009190848201906040850190845b8181101561108e5783516001600160a01b031683529284019291840191600101611069565b50909695505050505050565b6000806000606084860312156110af57600080fd5b505081359360208301359350604090920135919050565b600080604083850312156110d957600080fd5b50508035926020909101359150565b60006001600160a01b038087168352602081871681850152856040850152608060608501528451915081608085015260005b828110156111365785810182015185820160a00152810161111a565b8281111561114857600060a084870101525b5050601f01601f19169190910160a00195945050505050565b60006020828403121561117357600080fd5b5051919050565b60006020828403121561118c57600080fd5b815180151581146109c957600080fd5b634e487b7160e01b600052601160045260246000fd5b6000828210156111c4576111c461119c565b500390565b60008160001904831182151516156111e3576111e361119c565b500290565b634e487b7160e01b600052601260045260246000fd5b60008261120d5761120d6111e8565b500490565b600082198211156112255761122561119c565b500190565b600082611239576112396111e8565b50069056fea164736f6c6343000809000a",
  "linkReferences": {},
  "deployedLinkReferences": {}
}