{
  "_format": "hh-sol-artifact-1",
  "contractName": "UVNFT",
  "sourceName": "contracts/UVNFT.sol",
  "abi": [
    {
      "inputs": [],
      "stateMutability": "nonpayable",
      "type": "constructor"
    },
    {
      "anonymous": false,
      "inputs": [
        {
          "indexed": true,
          "internalType": "address",
          "name": "owner",
          "type": "address"
        },
        {
          "indexed": true,
          "internalType": "address",
          "name": "approved",
          "type": "address"
        },
        {
          "indexed": true,
          "internalType": "uint256",
          "name": "tokenId",
          "type": "uint256"
        }
      ],
      "name": "Approval",
      "type": "event"
    },
    {
      "anonymous": false,
      "inputs": [
        {
          "indexed": true,
          "internalType": "address",
          "name": "owner",
          "type": "address"
        },
        {
          "indexed": true,
          "internalType": "address",
          "name": "operator",
          "type": "address"
        },
        {
          "indexed": false,
          "internalType": "bool",
          "name": "approved",
          "type": "bool"
        }
      ],
      "name": "ApprovalForAll",
      "type": "event"
    },
    {
      "anonymous": false,
      "inputs": [
        {
          "indexed": true,
          "internalType": "address",
          "name": "from",
          "type": "address"
        },
        {
          "indexed": true,
          "internalType": "address",
          "name": "to",
          "type": "address"
        },
        {
          "indexed": true,
          "internalType": "uint256",
          "name": "tokenId",
          "type": "uint256"
        }
      ],
      "name": "Transfer",
      "type": "event"
    },
    {
      "inputs": [
        {
          "internalType": "address",
          "name": "to",
          "type": "address"
        },
        {
          "internalType": "uint256",
          "name": "tokenId",
          "type": "uint256"
        }
      ],
      "name": "approve",
      "outputs": [],
      "stateMutability": "nonpayable",
      "type": "function"
    },
    {
      "inputs": [
        {
          "internalType": "address",
          "name": "owner",
          "type": "address"
        }
      ],
      "name": "balanceOf",
      "outputs": [
        {
          "internalType": "uint256",
          "name": "",
          "type": "uint256"
        }
      ],
      "stateMutability": "view",
      "type": "function"
    },
    {
      "inputs": [
        {
          "internalType": "uint256",
          "name": "tokenId",
          "type": "uint256"
        }
      ],
      "name": "burn",
      "outputs": [],
      "stateMutability": "nonpayable",
      "type": "function"
    },
    {
      "inputs": [
        {
          "internalType": "uint256",
          "name": "tokenId",
          "type": "uint256"
        }
      ],
      "name": "getApproved",
      "outputs": [
        {
          "internalType": "address",
          "name": "",
          "type": "address"
        }
      ],
      "stateMutability": "view",
      "type": "function"
    },
    {
      "inputs": [
        {
          "internalType": "address",
          "name": "owner",
          "type": "address"
        },
        {
          "internalType": "address",
          "name": "operator",
          "type": "address"
        }
      ],
      "name": "isApprovedForAll",
      "outputs": [
        {
          "internalType": "bool",
          "name": "",
          "type": "bool"
        }
      ],
      "stateMutability": "view",
      "type": "function"
    },
    {
      "inputs": [],
      "name": "name",
      "outputs": [
        {
          "internalType": "string",
          "name": "",
          "type": "string"
        }
      ],
      "stateMutability": "view",
      "type": "function"
    },
    {
      "inputs": [
        {
          "internalType": "uint256",
          "name": "tokenId",
          "type": "uint256"
        }
      ],
      "name": "ownerOf",
      "outputs": [
        {
          "internalType": "address",
          "name": "",
          "type": "address"
        }
      ],
      "stateMutability": "view",
      "type": "function"
    },
    {
      "inputs": [
        {
          "internalType": "address",
          "name": "to",
          "type": "address"
        }
      ],
      "name": "safeMint",
      "outputs": [],
      "stateMutability": "nonpayable",
      "type": "function"
    },
    {
      "inputs": [
        {
          "internalType": "address",
          "name": "from",
          "type": "address"
        },
        {
          "internalType": "address",
          "name": "to",
          "type": "address"
        },
        {
          "internalType": "uint256",
          "name": "tokenId",
          "type": "uint256"
        }
      ],
      "name": "safeTransferFrom",
      "outputs": [],
      "stateMutability": "nonpayable",
      "type": "function"
    },
    {
      "inputs": [
        {
          "internalType": "address",
          "name": "from",
          "type": "address"
        },
        {
          "internalType": "address",
          "name": "to",
          "type": "address"
        },
        {
          "internalType": "uint256",
          "name": "tokenId",
          "type": "uint256"
        },
        {
          "internalType": "bytes",
          "name": "_data",
          "type": "bytes"
        }
      ],
      "name": "safeTransferFrom",
      "outputs": [],
      "stateMutability": "nonpayable",
      "type": "function"
    },
    {
      "inputs": [
        {
          "internalType": "address",
          "name": "operator",
          "type": "address"
        },
        {
          "internalType": "bool",
          "name": "approved",
          "type": "bool"
        }
      ],
      "name": "setApprovalForAll",
      "outputs": [],
      "stateMutability": "nonpayable",
      "type": "function"
    },
    {
      "inputs": [
        {
          "internalType": "bytes4",
          "name": "interfaceId",
          "type": "bytes4"
        }
      ],
      "name": "supportsInterface",
      "outputs": [
        {
          "internalType": "bool",
          "name": "",
          "type": "bool"
        }
      ],
      "stateMutability": "view",
      "type": "function"
    },
    {
      "inputs": [],
      "name": "symbol",
      "outputs": [
        {
          "internalType": "string",
          "name": "",
          "type": "string"
        }
      ],
      "stateMutability": "view",
      "type": "function"
    },
    {
      "inputs": [
        {
          "internalType": "uint256",
          "name": "index",
          "type": "uint256"
        }
      ],
      "name": "tokenByIndex",
      "outputs": [
        {
          "internalType": "uint256",
          "name": "",
          "type": "uint256"
        }
      ],
      "stateMutability": "view",
      "type": "function"
    },
    {
      "inputs": [
        {
          "internalType": "address",
          "name": "owner",
          "type": "address"
        },
        {
          "internalType": "uint256",
          "name": "index",
          "type": "uint256"
        }
      ],
      "name": "tokenOfOwnerByIndex",
      "outputs": [
        {
          "internalType": "uint256",
          "name": "",
          "type": "uint256"
        }
      ],
      "stateMutability": "view",
      "type": "function"
    },
    {
      "inputs": [
        {
          "internalType": "uint256",
          "name": "tokenId",
          "type": "uint256"
        }
      ],
      "name": "tokenURI",
      "outputs": [
        {
          "internalType": "string",
          "name": "",
          "type": "string"
        }
      ],
      "stateMutability": "view",
      "type": "function"
    },
    {
      "inputs": [],
      "name": "totalSupply",
      "outputs": [
        {
          "internalType": "uint256",
          "name": "",
          "type": "uint256"
        }
      ],
      "stateMutability": "view",
      "type": "function"
    },
    {
      "inputs": [
        {
          "internalType": "address",
          "name": "from",
          "type": "address"
        },
        {
          "internalType": "address",
          "name": "to",
          "type": "address"
        },
        {
          "internalType": "uint256",
          "name": "tokenId",
          "type": "uint256"
        }
      ],
      "name": "transferFrom",
      "outputs": [],
      "stateMutability": "nonpayable",
      "type": "function"
    }
  ],
  "bytecode": "0x60806040523480156200001157600080fd5b50604080518082018252600681526515558813919560d21b6020808301918252835180850190945260028452612aab60f11b9084015281519192916200005a9160009162000079565b5080516200007090600190602084019062000079565b5050506200015c565b82805462000087906200011f565b90600052602060002090601f016020900481019282620000ab5760008555620000f6565b82601f10620000c657805160ff1916838001178555620000f6565b82800160010185558215620000f6579182015b82811115620000f6578251825591602001919060010190620000d9565b506200010492915062000108565b5090565b5b8082111562000104576000815560010162000109565b600181811c908216806200013457607f821691505b602082108114156200015657634e487b7160e01b600052602260045260246000fd5b50919050565b611b17806200016c6000396000f3fe608060405234801561001057600080fd5b50600436106101365760003560e01c806342966c68116100b257806395d89b4111610081578063b88d4fde11610066578063b88d4fde1461027d578063c87b56dd14610290578063e985e9c5146102a357600080fd5b806395d89b4114610262578063a22cb4651461026a57600080fd5b806342966c68146102165780634f6ccce7146102295780636352211e1461023c57806370a082311461024f57600080fd5b806318160ddd116101095780632f745c59116100ee5780632f745c59146101dd57806340d097c3146101f057806342842e0e1461020357600080fd5b806318160ddd146101b857806323b872dd146101ca57600080fd5b806301ffc9a71461013b57806306fdde0314610163578063081812fc14610178578063095ea7b3146101a3575b600080fd5b61014e6101493660046116de565b6102df565b60405190151581526020015b60405180910390f35b61016b6102f0565b60405161015a9190611753565b61018b610186366004611766565b610382565b6040516001600160a01b03909116815260200161015a565b6101b66101b136600461179b565b61041c565b005b6008545b60405190815260200161015a565b6101b66101d83660046117c5565b610532565b6101bc6101eb36600461179b565b6105ba565b6101b66101fe366004611801565b610662565b6101b66102113660046117c5565b61068b565b6101b6610224366004611766565b6106a6565b6101bc610237366004611766565b61072d565b61018b61024a366004611766565b6107d1565b6101bc61025d366004611801565b61085c565b61016b6108f6565b6101b661027836600461181c565b610905565b6101b661028b36600461186e565b610910565b61016b61029e366004611766565b61099e565b61014e6102b136600461194a565b6001600160a01b03918216600090815260056020908152604080832093909416825291909152205460ff1690565b60006102ea82610a94565b92915050565b6060600080546102ff9061197d565b80601f016020809104026020016040519081016040528092919081815260200182805461032b9061197d565b80156103785780601f1061034d57610100808354040283529160200191610378565b820191906000526020600020905b81548152906001019060200180831161035b57829003601f168201915b5050505050905090565b6000818152600260205260408120546001600160a01b03166104005760405162461bcd60e51b815260206004820152602c60248201527f4552433732313a20617070726f76656420717565727920666f72206e6f6e657860448201526b34b9ba32b73a103a37b5b2b760a11b60648201526084015b60405180910390fd5b506000908152600460205260409020546001600160a01b031690565b6000610427826107d1565b9050806001600160a01b0316836001600160a01b031614156104955760405162461bcd60e51b815260206004820152602160248201527f4552433732313a20617070726f76616c20746f2063757272656e74206f776e656044820152603960f91b60648201526084016103f7565b336001600160a01b03821614806104b157506104b181336102b1565b6105235760405162461bcd60e51b815260206004820152603860248201527f4552433732313a20617070726f76652063616c6c6572206973206e6f74206f7760448201527f6e6572206e6f7220617070726f76656420666f7220616c6c000000000000000060648201526084016103f7565b61052d8383610ab9565b505050565b61053d335b82610b27565b6105af5760405162461bcd60e51b815260206004820152603160248201527f4552433732313a207472616e736665722063616c6c6572206973206e6f74206f60448201527f776e6572206e6f7220617070726f76656400000000000000000000000000000060648201526084016103f7565b61052d838383610c1e565b60006105c58361085c565b82106106395760405162461bcd60e51b815260206004820152602b60248201527f455243373231456e756d657261626c653a206f776e657220696e646578206f7560448201527f74206f6620626f756e647300000000000000000000000000000000000000000060648201526084016103f7565b506001600160a01b03919091166000908152600660209081526040808320938352929052205490565b600061066d600a5490565b905061067d600a80546001019055565b6106878282610ddd565b5050565b61052d83838360405180602001604052806000815250610910565b6106af33610537565b6107215760405162461bcd60e51b815260206004820152603060248201527f4552433732314275726e61626c653a2063616c6c6572206973206e6f74206f7760448201527f6e6572206e6f7220617070726f7665640000000000000000000000000000000060648201526084016103f7565b61072a81610df7565b50565b600061073860085490565b82106107ac5760405162461bcd60e51b815260206004820152602c60248201527f455243373231456e756d657261626c653a20676c6f62616c20696e646578206f60448201527f7574206f6620626f756e6473000000000000000000000000000000000000000060648201526084016103f7565b600882815481106107bf576107bf6119b8565b90600052602060002001549050919050565b6000818152600260205260408120546001600160a01b0316806102ea5760405162461bcd60e51b815260206004820152602960248201527f4552433732313a206f776e657220717565727920666f72206e6f6e657869737460448201527f656e7420746f6b656e000000000000000000000000000000000000000000000060648201526084016103f7565b60006001600160a01b0382166108da5760405162461bcd60e51b815260206004820152602a60248201527f4552433732313a2062616c616e636520717565727920666f7220746865207a6560448201527f726f20616464726573730000000000000000000000000000000000000000000060648201526084016103f7565b506001600160a01b031660009081526003602052604090205490565b6060600180546102ff9061197d565b610687338383610e9e565b61091a3383610b27565b61098c5760405162461bcd60e51b815260206004820152603160248201527f4552433732313a207472616e736665722063616c6c6572206973206e6f74206f60448201527f776e6572206e6f7220617070726f76656400000000000000000000000000000060648201526084016103f7565b61099884848484610f6d565b50505050565b6000818152600260205260409020546060906001600160a01b0316610a2b5760405162461bcd60e51b815260206004820152602f60248201527f4552433732314d657461646174613a2055524920717565727920666f72206e6f60448201527f6e6578697374656e7420746f6b656e000000000000000000000000000000000060648201526084016103f7565b6000610a4260408051602081019091526000815290565b90506000815111610a625760405180602001604052806000815250610a8d565b80610a6c84610feb565b604051602001610a7d9291906119ce565b6040516020818303038152906040525b9392505050565b60006001600160e01b0319821663780e9d6360e01b14806102ea57506102ea82611101565b600081815260046020526040902080546001600160a01b0319166001600160a01b0384169081179091558190610aee826107d1565b6001600160a01b03167f8c5be1e5ebec7d5bd14f71427d1e84f3dd0314c0f7b2291e5b200ac8c7c3b92560405160405180910390a45050565b6000818152600260205260408120546001600160a01b0316610ba05760405162461bcd60e51b815260206004820152602c60248201527f4552433732313a206f70657261746f7220717565727920666f72206e6f6e657860448201526b34b9ba32b73a103a37b5b2b760a11b60648201526084016103f7565b6000610bab836107d1565b9050806001600160a01b0316846001600160a01b03161480610be65750836001600160a01b0316610bdb84610382565b6001600160a01b0316145b80610c1657506001600160a01b0380821660009081526005602090815260408083209388168352929052205460ff165b949350505050565b826001600160a01b0316610c31826107d1565b6001600160a01b031614610cad5760405162461bcd60e51b815260206004820152602560248201527f4552433732313a207472616e736665722066726f6d20696e636f72726563742060448201527f6f776e657200000000000000000000000000000000000000000000000000000060648201526084016103f7565b6001600160a01b038216610d0f5760405162461bcd60e51b8152602060048201526024808201527f4552433732313a207472616e7366657220746f20746865207a65726f206164646044820152637265737360e01b60648201526084016103f7565b610d1a838383611151565b610d25600082610ab9565b6001600160a01b0383166000908152600360205260408120805460019290610d4e908490611a13565b90915550506001600160a01b0382166000908152600360205260408120805460019290610d7c908490611a2a565b909155505060008181526002602052604080822080546001600160a01b0319166001600160a01b0386811691821790925591518493918716917fddf252ad1be2c89b69c2b068fc378daa952ba7f163c4a11628f55a4df523b3ef91a4505050565b61068782826040518060200160405280600081525061115c565b6000610e02826107d1565b9050610e1081600084611151565b610e1b600083610ab9565b6001600160a01b0381166000908152600360205260408120805460019290610e44908490611a13565b909155505060008281526002602052604080822080546001600160a01b0319169055518391906001600160a01b038416907fddf252ad1be2c89b69c2b068fc378daa952ba7f163c4a11628f55a4df523b3ef908390a45050565b816001600160a01b0316836001600160a01b03161415610f005760405162461bcd60e51b815260206004820152601960248201527f4552433732313a20617070726f766520746f2063616c6c65720000000000000060448201526064016103f7565b6001600160a01b03838116600081815260056020908152604080832094871680845294825291829020805460ff191686151590811790915591519182527f17307eab39ab6107e8899845ad3d59bd9653f200f220920489ca2b5937696c31910160405180910390a3505050565b610f78848484610c1e565b610f84848484846111da565b6109985760405162461bcd60e51b815260206004820152603260248201527f4552433732313a207472616e7366657220746f206e6f6e20455243373231526560448201527131b2b4bb32b91034b6b83632b6b2b73a32b960711b60648201526084016103f7565b60608161100f5750506040805180820190915260018152600360fc1b602082015290565b8160005b8115611039578061102381611a42565b91506110329050600a83611a73565b9150611013565b60008167ffffffffffffffff81111561105457611054611858565b6040519080825280601f01601f19166020018201604052801561107e576020820181803683370190505b5090505b8415610c1657611093600183611a13565b91506110a0600a86611a87565b6110ab906030611a2a565b60f81b8183815181106110c0576110c06119b8565b60200101907effffffffffffffffffffffffffffffffffffffffffffffffffffffffffffff1916908160001a9053506110fa600a86611a73565b9450611082565b60006001600160e01b031982166380ac58cd60e01b148061113257506001600160e01b03198216635b5e139f60e01b145b806102ea57506301ffc9a760e01b6001600160e01b03198316146102ea565b61052d838383611332565b61116683836113ea565b61117360008484846111da565b61052d5760405162461bcd60e51b815260206004820152603260248201527f4552433732313a207472616e7366657220746f206e6f6e20455243373231526560448201527131b2b4bb32b91034b6b83632b6b2b73a32b960711b60648201526084016103f7565b60006001600160a01b0384163b1561132757604051630a85bd0160e11b81526001600160a01b0385169063150b7a029061121e903390899088908890600401611a9b565b602060405180830381600087803b15801561123857600080fd5b505af1925050508015611268575060408051601f3d908101601f1916820190925261126591810190611ad7565b60015b61130d573d808015611296576040519150601f19603f3d011682016040523d82523d6000602084013e61129b565b606091505b5080516113055760405162461bcd60e51b815260206004820152603260248201527f4552433732313a207472616e7366657220746f206e6f6e20455243373231526560448201527131b2b4bb32b91034b6b83632b6b2b73a32b960711b60648201526084016103f7565b805181602001fd5b6001600160e01b031916630a85bd0160e11b149050610c16565b506001949350505050565b6001600160a01b03831661138d5761138881600880546000838152600960205260408120829055600182018355919091527ff3f7a9fe364faab93b216da50a3214154f22a0a2b415b23a84c8169e8b636ee30155565b6113b0565b816001600160a01b0316836001600160a01b0316146113b0576113b08382611538565b6001600160a01b0382166113c75761052d816115d5565b826001600160a01b0316826001600160a01b03161461052d5761052d8282611684565b6001600160a01b0382166114405760405162461bcd60e51b815260206004820181905260248201527f4552433732313a206d696e7420746f20746865207a65726f206164647265737360448201526064016103f7565b6000818152600260205260409020546001600160a01b0316156114a55760405162461bcd60e51b815260206004820152601c60248201527f4552433732313a20746f6b656e20616c7265616479206d696e7465640000000060448201526064016103f7565b6114b160008383611151565b6001600160a01b03821660009081526003602052604081208054600192906114da908490611a2a565b909155505060008181526002602052604080822080546001600160a01b0319166001600160a01b03861690811790915590518392907fddf252ad1be2c89b69c2b068fc378daa952ba7f163c4a11628f55a4df523b3ef908290a45050565b600060016115458461085c565b61154f9190611a13565b6000838152600760205260409020549091508082146115a2576001600160a01b03841660009081526006602090815260408083208584528252808320548484528184208190558352600790915290208190555b5060009182526007602090815260408084208490556001600160a01b039094168352600681528383209183525290812055565b6008546000906115e790600190611a13565b6000838152600960205260408120546008805493945090928490811061160f5761160f6119b8565b906000526020600020015490508060088381548110611630576116306119b8565b600091825260208083209091019290925582815260099091526040808220849055858252812055600880548061166857611668611af4565b6001900381819060005260206000200160009055905550505050565b600061168f8361085c565b6001600160a01b039093166000908152600660209081526040808320868452825280832085905593825260079052919091209190915550565b6001600160e01b03198116811461072a57600080fd5b6000602082840312156116f057600080fd5b8135610a8d816116c8565b60005b838110156117165781810151838201526020016116fe565b838111156109985750506000910152565b6000815180845261173f8160208601602086016116fb565b601f01601f19169290920160200192915050565b602081526000610a8d6020830184611727565b60006020828403121561177857600080fd5b5035919050565b80356001600160a01b038116811461179657600080fd5b919050565b600080604083850312156117ae57600080fd5b6117b78361177f565b946020939093013593505050565b6000806000606084860312156117da57600080fd5b6117e38461177f565b92506117f16020850161177f565b9150604084013590509250925092565b60006020828403121561181357600080fd5b610a8d8261177f565b6000806040838503121561182f57600080fd5b6118388361177f565b91506020830135801515811461184d57600080fd5b809150509250929050565b634e487b7160e01b600052604160045260246000fd5b6000806000806080858703121561188457600080fd5b61188d8561177f565b935061189b6020860161177f565b925060408501359150606085013567ffffffffffffffff808211156118bf57600080fd5b818701915087601f8301126118d357600080fd5b8135818111156118e5576118e5611858565b604051601f8201601f19908116603f0116810190838211818310171561190d5761190d611858565b816040528281528a602084870101111561192657600080fd5b82602086016020830137600060208483010152809550505050505092959194509250565b6000806040838503121561195d57600080fd5b6119668361177f565b91506119746020840161177f565b90509250929050565b600181811c9082168061199157607f821691505b602082108114156119b257634e487b7160e01b600052602260045260246000fd5b50919050565b634e487b7160e01b600052603260045260246000fd5b600083516119e08184602088016116fb565b8351908301906119f48183602088016116fb565b01949350505050565b634e487b7160e01b600052601160045260246000fd5b600082821015611a2557611a256119fd565b500390565b60008219821115611a3d57611a3d6119fd565b500190565b6000600019821415611a5657611a566119fd565b5060010190565b634e487b7160e01b600052601260045260246000fd5b600082611a8257611a82611a5d565b500490565b600082611a9657611a96611a5d565b500690565b60006001600160a01b03808716835280861660208401525083604083015260806060830152611acd6080830184611727565b9695505050505050565b600060208284031215611ae957600080fd5b8151610a8d816116c8565b634e487b7160e01b600052603160045260246000fdfea164736f6c6343000809000a",
  "linkReferences": {},
  "deployedLinkReferences": {}
}